{
    "_format": "hh-sol-artifact-1",
    "contractName": "EscrowContract",
    "sourceName": "contracts/EscrowContract.sol",
    "abi": [
        {
            "inputs": [
                {
                    "internalType": "address",
                    "name": "_dao",
                    "type": "address"
                },
                {
                    "internalType": "address",
                    "name": "_mockUSDC",
                    "type": "address"
                }
            ],
            "stateMutability": "nonpayable",
            "type": "constructor"
        },
        {
            "anonymous": false,
            "inputs": [
                {
                    "indexed": false,
                    "internalType": "uint256",
                    "name": "escrowId",
                    "type": "uint256"
                }
            ],
            "name": "DisputeRaised",
            "type": "event"
        },
        {
            "anonymous": false,
            "inputs": [
                {
                    "indexed": false,
                    "internalType": "uint256",
                    "name": "escrowId",
                    "type": "uint256"
                },
                {
                    "indexed": false,
                    "internalType": "address",
                    "name": "client",
                    "type": "address"
                },
                {
                    "indexed": false,
                    "internalType": "address",
                    "name": "freelancer",
                    "type": "address"
                },
                {
                    "indexed": false,
                    "internalType": "uint256",
                    "name": "amount",
                    "type": "uint256"
                },
                {
                    "indexed": false,
                    "internalType": "uint256",
                    "name": "submissionDeadline",
                    "type": "uint256"
                }
            ],
            "name": "EscrowCreated",
            "type": "event"
        },
        {
            "anonymous": false,
            "inputs": [
                {
                    "indexed": false,
                    "internalType": "uint256",
                    "name": "escrowId",
                    "type": "uint256"
                },
                {
                    "indexed": false,
                    "internalType": "address",
                    "name": "freelancer",
                    "type": "address"
                }
            ],
            "name": "PaymentReleased",
            "type": "event"
        },
        {
            "anonymous": false,
            "inputs": [
                {
                    "indexed": false,
                    "internalType": "uint256",
                    "name": "escrowId",
                    "type": "uint256"
                },
                {
                    "indexed": false,
                    "internalType": "string",
                    "name": "fileUrl",
                    "type": "string"
                }
            ],
            "name": "WorkSubmitted",
            "type": "event"
        },
        {
            "inputs": [
                {
                    "internalType": "address",
                    "name": "account",
                    "type": "address"
                }
            ],
            "name": "balance",
            "outputs": [
                {
                    "internalType": "uint256",
                    "name": "",
                    "type": "uint256"
                }
            ],
            "stateMutability": "view",
            "type": "function"
        },
        {
            "inputs": [
                {
                    "internalType": "address",
                    "name": "freelancer",
                    "type": "address"
                },
                {
                    "internalType": "uint256",
                    "name": "amount",
                    "type": "uint256"
                },
                {
                    "internalType": "uint256",
                    "name": "_submissionPeriodInDays",
                    "type": "uint256"
                }
            ],
            "name": "createEscrow",
            "outputs": [],
            "stateMutability": "nonpayable",
            "type": "function"
        },
        {
            "inputs": [],
            "name": "currentState",
            "outputs": [
                {
                    "internalType": "enum EscrowContract.State",
                    "name": "",
                    "type": "uint8"
                }
            ],
            "stateMutability": "view",
            "type": "function"
        },
        {
            "inputs": [],
            "name": "dao",
            "outputs": [
                {
                    "internalType": "contract DLancerDAO",
                    "name": "",
                    "type": "address"
                }
            ],
            "stateMutability": "view",
            "type": "function"
        },
        {
            "inputs": [],
            "name": "escrowCount",
            "outputs": [
                {
                    "internalType": "uint256",
                    "name": "",
                    "type": "uint256"
                }
            ],
            "stateMutability": "view",
            "type": "function"
        },
        {
            "inputs": [
                {
                    "internalType": "uint256",
                    "name": "",
                    "type": "uint256"
                }
            ],
            "name": "escrows",
            "outputs": [
                {
                    "internalType": "address",
                    "name": "client",
                    "type": "address"
                },
                {
                    "internalType": "address",
                    "name": "freelancer",
                    "type": "address"
                },
                {
                    "internalType": "uint256",
                    "name": "amount",
                    "type": "uint256"
                },
                {
                    "internalType": "uint256",
                    "name": "submissionDeadline",
                    "type": "uint256"
                },
                {
                    "internalType": "string",
                    "name": "file",
                    "type": "string"
                },
                {
                    "internalType": "bytes32",
                    "name": "fileHash",
                    "type": "bytes32"
                }
            ],
            "stateMutability": "view",
            "type": "function"
        },
        {
            "inputs": [
                {
                    "internalType": "uint256",
                    "name": "escrowId",
                    "type": "uint256"
                }
            ],
            "name": "getFileDetails",
            "outputs": [
                {
                    "internalType": "string",
                    "name": "",
                    "type": "string"
                },
                {
                    "internalType": "bytes32",
                    "name": "",
                    "type": "bytes32"
                }
            ],
            "stateMutability": "view",
            "type": "function"
        },
        {
            "inputs": [
                {
                    "internalType": "uint256",
                    "name": "escrowId",
                    "type": "uint256"
                }
            ],
            "name": "raiseDispute",
            "outputs": [],
            "stateMutability": "nonpayable",
            "type": "function"
        },
        {
            "inputs": [
                {
                    "internalType": "uint256",
                    "name": "escrowId",
                    "type": "uint256"
                }
            ],
            "name": "releasePayment",
            "outputs": [],
            "stateMutability": "nonpayable",
            "type": "function"
        },
        {
            "inputs": [
                {
                    "internalType": "uint256",
                    "name": "escrowId",
                    "type": "uint256"
                },
                {
                    "internalType": "string",
                    "name": "_fileUrl",
                    "type": "string"
                }
            ],
            "name": "submitWork",
            "outputs": [],
            "stateMutability": "nonpayable",
            "type": "function"
        },
        {
            "inputs": [],
            "name": "usdc",
            "outputs": [
                {
                    "internalType": "contract IERC20",
                    "name": "",
                    "type": "address"
                }
            ],
            "stateMutability": "view",
            "type": "function"
        }
    ],
    "bytecode": "0x60806040523480156200001157600080fd5b50604051620020c6380380620020c6833981810160405281019062000037919062000158565b80600060016101000a81548173ffffffffffffffffffffffffffffffffffffffff021916908373ffffffffffffffffffffffffffffffffffffffff16021790555081600160006101000a81548173ffffffffffffffffffffffffffffffffffffffff021916908373ffffffffffffffffffffffffffffffffffffffff16021790555060008060006101000a81548160ff02191690836004811115620000e157620000e06200019f565b5b02179055505050620001ce565b600080fd5b600073ffffffffffffffffffffffffffffffffffffffff82169050919050565b60006200012082620000f3565b9050919050565b620001328162000113565b81146200013e57600080fd5b50565b600081519050620001528162000127565b92915050565b60008060408385031215620001725762000171620000ee565b5b6000620001828582860162000141565b9250506020620001958582860162000141565b9150509250929050565b7f4e487b7100000000000000000000000000000000000000000000000000000000600052602160045260246000fd5b611ee880620001de6000396000f3fe608060405234801561001057600080fd5b50600436106100a95760003560e01c8063675ac67a11610071578063675ac67a1461016e57806388685cd91461018c578063a5c1674e146101a8578063da8accf9146101c4578063e2ecb311146101e0578063e3d670d7146101fc576100a9565b8063012f52ee146100ae5780630c3f6acf146100e35780630fb10631146101015780633e413bee146101325780634162169f14610150575b600080fd5b6100c860048036038101906100c39190610fe7565b61022c565b6040516100da9695949392919061110d565b60405180910390f35b6100eb610330565b6040516100f891906111ec565b60405180910390f35b61011b60048036038101906101169190610fe7565b610341565b604051610129929190611207565b60405180910390f35b61013a6103fa565b6040516101479190611296565b60405180910390f35b610158610420565b60405161016591906112d2565b60405180910390f35b610176610446565b60405161018391906112ed565b60405180910390f35b6101a660048036038101906101a19190610fe7565b61044c565b005b6101c260048036038101906101bd9190610fe7565b610719565b005b6101de60048036038101906101d9919061143d565b610904565b005b6101fa60048036038101906101f591906114c5565b610bb5565b005b61021660048036038101906102119190611518565b610ef9565b60405161022391906112ed565b60405180910390f35b60026020528060005260406000206000915090508060000160009054906101000a900473ffffffffffffffffffffffffffffffffffffffff16908060010160009054906101000a900473ffffffffffffffffffffffffffffffffffffffff16908060020154908060030154908060040180546102a790611574565b80601f01602080910402602001604051908101604052809291908181526020018280546102d390611574565b80156103205780601f106102f557610100808354040283529160200191610320565b820191906000526020600020905b81548152906001019060200180831161030357829003601f168201915b5050505050908060050154905086565b60008054906101000a900460ff1681565b606060008060026000858152602001908152602001600020905080600401816005015481805461037090611574565b80601f016020809104026020016040519081016040528092919081815260200182805461039c90611574565b80156103e95780601f106103be576101008083540402835291602001916103e9565b820191906000526020600020905b8154815290600101906020018083116103cc57829003601f168201915b505050505091509250925050915091565b600060019054906101000a900473ffffffffffffffffffffffffffffffffffffffff1681565b600160009054906101000a900473ffffffffffffffffffffffffffffffffffffffff1681565b60035481565b806002600082815260200190815260200160002060000160009054906101000a900473ffffffffffffffffffffffffffffffffffffffff1673ffffffffffffffffffffffffffffffffffffffff163373ffffffffffffffffffffffffffffffffffffffff16146104f1576040517f08c379a00000000000000000000000000000000000000000000000000000000081526004016104e890611617565b60405180910390fd5b816003548110610536576040517f08c379a000000000000000000000000000000000000000000000000000000000815260040161052d90611683565b60405180910390fd5b600280600481111561054b5761054a611175565b5b60008054906101000a900460ff16600481111561056b5761056a611175565b5b146105ab576040517f08c379a00000000000000000000000000000000000000000000000000000000081526004016105a2906116ef565b60405180910390fd5b600060026000868152602001908152602001600020905060036000806101000a81548160ff021916908360048111156105e7576105e6611175565b5b0217905550600060019054906101000a900473ffffffffffffffffffffffffffffffffffffffff1673ffffffffffffffffffffffffffffffffffffffff1663a9059cbb8260010160009054906101000a900473ffffffffffffffffffffffffffffffffffffffff1683600201546040518363ffffffff1660e01b815260040161067192919061170f565b6020604051808303816000875af1158015610690573d6000803e3d6000fd5b505050506040513d601f19601f820116820180604052508101906106b49190611770565b507f4156924bd7e340b19303af17bf5323d66fae5dc16f350319092e0839c8543683858260010160009054906101000a900473ffffffffffffffffffffffffffffffffffffffff1660405161070a92919061179d565b60405180910390a15050505050565b806002600082815260200190815260200160002060000160009054906101000a900473ffffffffffffffffffffffffffffffffffffffff1673ffffffffffffffffffffffffffffffffffffffff163373ffffffffffffffffffffffffffffffffffffffff16146107be576040517f08c379a00000000000000000000000000000000000000000000000000000000081526004016107b590611617565b60405180910390fd5b816003548110610803576040517f08c379a00000000000000000000000000000000000000000000000000000000081526004016107fa90611683565b60405180910390fd5b600160009054906101000a900473ffffffffffffffffffffffffffffffffffffffff1673ffffffffffffffffffffffffffffffffffffffff166316eddaee6002600086815260200190815260200160002060010160009054906101000a900473ffffffffffffffffffffffffffffffffffffffff16856040518363ffffffff1660e01b815260040161089692919061170f565b600060405180830381600087803b1580156108b057600080fd5b505af11580156108c4573d6000803e3d6000fd5b505050507f04901f83201c8724eadf084436db8aa391820bae6d11f9f78a17edb6f2eef3cf836040516108f791906112ed565b60405180910390a1505050565b816002600082815260200190815260200160002060010160009054906101000a900473ffffffffffffffffffffffffffffffffffffffff1673ffffffffffffffffffffffffffffffffffffffff163373ffffffffffffffffffffffffffffffffffffffff16146109a9576040517f08c379a00000000000000000000000000000000000000000000000000000000081526004016109a090611838565b60405180910390fd5b8260035481106109ee576040517f08c379a00000000000000000000000000000000000000000000000000000000081526004016109e590611683565b60405180910390fd5b6001806004811115610a0357610a02611175565b5b60008054906101000a900460ff166004811115610a2357610a22611175565b5b14610a63576040517f08c379a0000000000000000000000000000000000000000000000000000000008152600401610a5a906116ef565b60405180910390fd5b60006002600087815260200190815260200160002090508060030154421115610ac1576040517f08c379a0000000000000000000000000000000000000000000000000000000008152600401610ab8906118a4565b60405180910390fd5b84816004019081610ad29190611a66565b50600285604051602001610ae69190611b74565b604051602081830303815290604052604051610b029190611bd2565b602060405180830381855afa158015610b1f573d6000803e3d6000fd5b5050506040513d601f19601f82011682018060405250810190610b429190611c15565b816005018190555060026000806101000a81548160ff02191690836004811115610b6f57610b6e611175565b5b02179055507f3822c71b106c7c1dabf7f076e68c9bd98c45d0cd0d073f4dcdaf422a0fe558478686604051610ba5929190611c42565b60405180910390a1505050505050565b6000806004811115610bca57610bc9611175565b5b60008054906101000a900460ff166004811115610bea57610be9611175565b5b14610c2a576040517f08c379a0000000000000000000000000000000000000000000000000000000008152600401610c21906116ef565b60405180910390fd5b600060019054906101000a900473ffffffffffffffffffffffffffffffffffffffff1673ffffffffffffffffffffffffffffffffffffffff166323b872dd3330866040518463ffffffff1660e01b8152600401610c8993929190611c72565b6020604051808303816000875af1158015610ca8573d6000803e3d6000fd5b505050506040513d601f19601f82011682018060405250810190610ccc9190611770565b610d0b576040517f08c379a0000000000000000000000000000000000000000000000000000000008152600401610d0290611cf5565b60405180910390fd5b60006201518083610d1c9190611d44565b42610d279190611d86565b90506040518060c001604052803373ffffffffffffffffffffffffffffffffffffffff1681526020018673ffffffffffffffffffffffffffffffffffffffff168152602001858152602001828152602001604051806020016040528060008152508152602001600080191681525060026000600354815260200190815260200160002060008201518160000160006101000a81548173ffffffffffffffffffffffffffffffffffffffff021916908373ffffffffffffffffffffffffffffffffffffffff16021790555060208201518160010160006101000a81548173ffffffffffffffffffffffffffffffffffffffff021916908373ffffffffffffffffffffffffffffffffffffffff16021790555060408201518160020155606082015181600301556080820151816004019081610e619190611a66565b5060a0820151816005015590505060016000806101000a81548160ff02191690836004811115610e9457610e93611175565b5b02179055507f59e4b8728799382406714f1c57de5c893d2772f9a8bf9950c5afe4397e64865460035433878785604051610ed2959493929190611dba565b60405180910390a160036000815480929190610eed90611e0d565b91905055505050505050565b60008060019054906101000a900473ffffffffffffffffffffffffffffffffffffffff1673ffffffffffffffffffffffffffffffffffffffff166370a08231836040518263ffffffff1660e01b8152600401610f559190611e55565b602060405180830381865afa158015610f72573d6000803e3d6000fd5b505050506040513d601f19601f82011682018060405250810190610f969190611e85565b9050919050565b6000604051905090565b600080fd5b600080fd5b6000819050919050565b610fc481610fb1565b8114610fcf57600080fd5b50565b600081359050610fe181610fbb565b92915050565b600060208284031215610ffd57610ffc610fa7565b5b600061100b84828501610fd2565b91505092915050565b600073ffffffffffffffffffffffffffffffffffffffff82169050919050565b600061103f82611014565b9050919050565b61104f81611034565b82525050565b61105e81610fb1565b82525050565b600081519050919050565b600082825260208201905092915050565b60005b8381101561109e578082015181840152602081019050611083565b60008484015250505050565b6000601f19601f8301169050919050565b60006110c682611064565b6110d0818561106f565b93506110e0818560208601611080565b6110e9816110aa565b840191505092915050565b6000819050919050565b611107816110f4565b82525050565b600060c0820190506111226000830189611046565b61112f6020830188611046565b61113c6040830187611055565b6111496060830186611055565b818103608083015261115b81856110bb565b905061116a60a08301846110fe565b979650505050505050565b7f4e487b7100000000000000000000000000000000000000000000000000000000600052602160045260246000fd5b600581106111b5576111b4611175565b5b50565b60008190506111c6826111a4565b919050565b60006111d6826111b8565b9050919050565b6111e6816111cb565b82525050565b600060208201905061120160008301846111dd565b92915050565b6000604082019050818103600083015261122181856110bb565b905061123060208301846110fe565b9392505050565b6000819050919050565b600061125c61125761125284611014565b611237565b611014565b9050919050565b600061126e82611241565b9050919050565b600061128082611263565b9050919050565b61129081611275565b82525050565b60006020820190506112ab6000830184611287565b92915050565b60006112bc82611263565b9050919050565b6112cc816112b1565b82525050565b60006020820190506112e760008301846112c3565b92915050565b60006020820190506113026000830184611055565b92915050565b600080fd5b600080fd5b7f4e487b7100000000000000000000000000000000000000000000000000000000600052604160045260246000fd5b61134a826110aa565b810181811067ffffffffffffffff8211171561136957611368611312565b5b80604052505050565b600061137c610f9d565b90506113888282611341565b919050565b600067ffffffffffffffff8211156113a8576113a7611312565b5b6113b1826110aa565b9050602081019050919050565b82818337600083830152505050565b60006113e06113db8461138d565b611372565b9050828152602081018484840111156113fc576113fb61130d565b5b6114078482856113be565b509392505050565b600082601f83011261142457611423611308565b5b81356114348482602086016113cd565b91505092915050565b6000806040838503121561145457611453610fa7565b5b600061146285828601610fd2565b925050602083013567ffffffffffffffff81111561148357611482610fac565b5b61148f8582860161140f565b9150509250929050565b6114a281611034565b81146114ad57600080fd5b50565b6000813590506114bf81611499565b92915050565b6000806000606084860312156114de576114dd610fa7565b5b60006114ec868287016114b0565b93505060206114fd86828701610fd2565b925050604061150e86828701610fd2565b9150509250925092565b60006020828403121561152e5761152d610fa7565b5b600061153c848285016114b0565b91505092915050565b7f4e487b7100000000000000000000000000000000000000000000000000000000600052602260045260246000fd5b6000600282049050600182168061158c57607f821691505b60208210810361159f5761159e611545565b5b50919050565b7f4f6e6c7920636c69656e742063616e20706572666f726d20746869732061637460008201527f696f6e0000000000000000000000000000000000000000000000000000000000602082015250565b600061160160238361106f565b915061160c826115a5565b604082019050919050565b60006020820190508181036000830152611630816115f4565b9050919050565b7f457363726f7720646f6573206e6f742065786973740000000000000000000000600082015250565b600061166d60158361106f565b915061167882611637565b602082019050919050565b6000602082019050818103600083015261169c81611660565b9050919050565b7f496e76616c69642073746174652e000000000000000000000000000000000000600082015250565b60006116d9600e8361106f565b91506116e4826116a3565b602082019050919050565b60006020820190508181036000830152611708816116cc565b9050919050565b60006040820190506117246000830185611046565b6117316020830184611055565b9392505050565b60008115159050919050565b61174d81611738565b811461175857600080fd5b50565b60008151905061176a81611744565b92915050565b60006020828403121561178657611785610fa7565b5b60006117948482850161175b565b91505092915050565b60006040820190506117b26000830185611055565b6117bf6020830184611046565b9392505050565b7f4f6e6c7920667265656c616e6365722063616e20706572666f726d207468697360008201527f20616374696f6e00000000000000000000000000000000000000000000000000602082015250565b600061182260278361106f565b915061182d826117c6565b604082019050919050565b6000602082019050818103600083015261185181611815565b9050919050565b7f5375626d697373696f6e20646561646c696e65207061737365642e0000000000600082015250565b600061188e601b8361106f565b915061189982611858565b602082019050919050565b600060208201905081810360008301526118bd81611881565b9050919050565b60008190508160005260206000209050919050565b60006020601f8301049050919050565b600082821b905092915050565b6000600883026119267fffffffffffffffffffffffffffffffffffffffffffffffffffffffffffffffff826118e9565b61193086836118e9565b95508019841693508086168417925050509392505050565b600061196361195e61195984610fb1565b611237565b610fb1565b9050919050565b6000819050919050565b61197d83611948565b6119916119898261196a565b8484546118f6565b825550505050565b600090565b6119a6611999565b6119b1818484611974565b505050565b5b818110156119d5576119ca60008261199e565b6001810190506119b7565b5050565b601f821115611a1a576119eb816118c4565b6119f4846118d9565b81016020851015611a03578190505b611a17611a0f856118d9565b8301826119b6565b50505b505050565b600082821c905092915050565b6000611a3d60001984600802611a1f565b1980831691505092915050565b6000611a568383611a2c565b9150826002028217905092915050565b611a6f82611064565b67ffffffffffffffff811115611a8857611a87611312565b5b611a928254611574565b611a9d8282856119d9565b600060209050601f831160018114611ad05760008415611abe578287015190505b611ac88582611a4a565b865550611b30565b601f198416611ade866118c4565b60005b82811015611b0657848901518255600182019150602085019450602081019050611ae1565b86831015611b235784890151611b1f601f891682611a2c565b8355505b6001600288020188555050505b505050505050565b600081905092915050565b6000611b4e82611064565b611b588185611b38565b9350611b68818560208601611080565b80840191505092915050565b6000611b808284611b43565b915081905092915050565b600081519050919050565b600081905092915050565b6000611bac82611b8b565b611bb68185611b96565b9350611bc6818560208601611080565b80840191505092915050565b6000611bde8284611ba1565b915081905092915050565b611bf2816110f4565b8114611bfd57600080fd5b50565b600081519050611c0f81611be9565b92915050565b600060208284031215611c2b57611c2a610fa7565b5b6000611c3984828501611c00565b91505092915050565b6000604082019050611c576000830185611055565b8181036020830152611c6981846110bb565b90509392505050565b6000606082019050611c876000830186611046565b611c946020830185611046565b611ca16040830184611055565b949350505050565b7f5472616e73666572206661696c65640000000000000000000000000000000000600082015250565b6000611cdf600f8361106f565b9150611cea82611ca9565b602082019050919050565b60006020820190508181036000830152611d0e81611cd2565b9050919050565b7f4e487b7100000000000000000000000000000000000000000000000000000000600052601160045260246000fd5b6000611d4f82610fb1565b9150611d5a83610fb1565b9250828202611d6881610fb1565b91508282048414831517611d7f57611d7e611d15565b5b5092915050565b6000611d9182610fb1565b9150611d9c83610fb1565b9250828201905080821115611db457611db3611d15565b5b92915050565b600060a082019050611dcf6000830188611055565b611ddc6020830187611046565b611de96040830186611046565b611df66060830185611055565b611e036080830184611055565b9695505050505050565b6000611e1882610fb1565b91507fffffffffffffffffffffffffffffffffffffffffffffffffffffffffffffffff8203611e4a57611e49611d15565b5b600182019050919050565b6000602082019050611e6a6000830184611046565b92915050565b600081519050611e7f81610fbb565b92915050565b600060208284031215611e9b57611e9a610fa7565b5b6000611ea984828501611e70565b9150509291505056fea2646970667358221220dae83e9b8baa8ed97948ad6c9560d6425e1e56160f7a29c35882e4df68e4650364736f6c63430008180033",
    "linkReferences": {},
    "deployedLinkReferences": {}
}