{
  "_format": "hh-sol-artifact-1",
  "contractName": "EscrowFactory",
  "sourceName": "contracts/EscrowFactory.sol",
  "abi": [
    {
      "inputs": [
        {
          "internalType": "address",
          "name": "_usdc",
          "type": "address"
        }
      ],
      "stateMutability": "nonpayable",
      "type": "constructor"
    },
    {
      "anonymous": false,
      "inputs": [
        {
          "indexed": false,
          "internalType": "address",
          "name": "escrowAddress",
          "type": "address"
        },
        {
          "indexed": false,
          "internalType": "address",
          "name": "client",
          "type": "address"
        },
        {
          "indexed": false,
          "internalType": "address",
          "name": "freelancer",
          "type": "address"
        },
        {
          "indexed": false,
          "internalType": "uint256",
          "name": "amount",
          "type": "uint256"
        }
      ],
      "name": "EscrowCreated",
      "type": "event"
    },
    {
      "inputs": [
        {
          "internalType": "address",
          "name": "freelancer",
          "type": "address"
        },
        {
          "internalType": "uint256",
          "name": "amount",
          "type": "uint256"
        },
        {
          "internalType": "uint256",
          "name": "_submissionPeriodInDays",
          "type": "uint256"
        }
      ],
      "name": "createEscrow",
      "outputs": [
        {
          "internalType": "address",
          "name": "",
          "type": "address"
        }
      ],
      "stateMutability": "nonpayable",
      "type": "function"
    },
    {
      "inputs": [
        {
          "internalType": "uint256",
          "name": "",
          "type": "uint256"
        }
      ],
      "name": "escrows",
      "outputs": [
        {
          "internalType": "address",
          "name": "",
          "type": "address"
        }
      ],
      "stateMutability": "view",
      "type": "function"
    },
    {
      "inputs": [],
      "name": "getAllEscrows",
      "outputs": [
        {
          "internalType": "address[]",
          "name": "",
          "type": "address[]"
        }
      ],
      "stateMutability": "view",
      "type": "function"
    },
    {
      "inputs": [],
      "name": "usdc",
      "outputs": [
        {
          "internalType": "address",
          "name": "",
          "type": "address"
        }
      ],
      "stateMutability": "view",
      "type": "function"
    }
  ],
  "bytecode": "0x608060405234801561001057600080fd5b5060405161238f38038061238f833981810160405281019061003291906100dc565b80600160006101000a81548173ffffffffffffffffffffffffffffffffffffffff021916908373ffffffffffffffffffffffffffffffffffffffff16021790555050610109565b600080fd5b600073ffffffffffffffffffffffffffffffffffffffff82169050919050565b60006100a98261007e565b9050919050565b6100b98161009e565b81146100c457600080fd5b50565b6000815190506100d6816100b0565b92915050565b6000602082840312156100f2576100f1610079565b5b6000610100848285016100c7565b91505092915050565b612277806101186000396000f3fe60806040523480156200001157600080fd5b5060043610620000525760003560e01c8063012f52ee14620000575780633e413bee146200008d5780639a6ac36f14620000af578063e2ecb31114620000d1575b600080fd5b6200007560048036038101906200006f919062000366565b62000107565b604051620000849190620003dd565b60405180910390f35b6200009762000147565b604051620000a69190620003dd565b60405180910390f35b620000b96200016d565b604051620000c89190620004c8565b60405180910390f35b620000ef6004803603810190620000e991906200051d565b620001fd565b604051620000fe9190620003dd565b60405180910390f35b600081815481106200011857600080fd5b906000526020600020016000915054906101000a900473ffffffffffffffffffffffffffffffffffffffff1681565b600160009054906101000a900473ffffffffffffffffffffffffffffffffffffffff1681565b60606000805480602002602001604051908101604052809291908181526020018280548015620001f357602002820191906000526020600020905b8160009054906101000a900473ffffffffffffffffffffffffffffffffffffffff1673ffffffffffffffffffffffffffffffffffffffff1681526020019060010190808311620001a8575b5050505050905090565b60008033858585600160009054906101000a900473ffffffffffffffffffffffffffffffffffffffff16604051620002359062000318565b620002459594939291906200058a565b604051809103906000f08015801562000262573d6000803e3d6000fd5b50905060008190506000819080600181540180825580915050600190039060005260206000200160009091909190916101000a81548173ffffffffffffffffffffffffffffffffffffffff021916908373ffffffffffffffffffffffffffffffffffffffff1602179055507fd99c67ae0185d6b0a36717d67d259f252914f7955744e4d81a91685ff480896d81338888604051620003049493929190620005e7565b60405180910390a180925050509392505050565b611c0d806200063583390190565b600080fd5b6000819050919050565b62000340816200032b565b81146200034c57600080fd5b50565b600081359050620003608162000335565b92915050565b6000602082840312156200037f576200037e62000326565b5b60006200038f848285016200034f565b91505092915050565b600073ffffffffffffffffffffffffffffffffffffffff82169050919050565b6000620003c58262000398565b9050919050565b620003d781620003b8565b82525050565b6000602082019050620003f46000830184620003cc565b92915050565b600081519050919050565b600082825260208201905092915050565b6000819050602082019050919050565b6200043181620003b8565b82525050565b600062000445838362000426565b60208301905092915050565b6000602082019050919050565b60006200046b82620003fa565b62000477818562000405565b9350620004848362000416565b8060005b83811015620004bb5781516200049f888262000437565b9750620004ac8362000451565b92505060018101905062000488565b5085935050505092915050565b60006020820190508181036000830152620004e481846200045e565b905092915050565b620004f781620003b8565b81146200050357600080fd5b50565b6000813590506200051781620004ec565b92915050565b60008060006060848603121562000539576200053862000326565b5b6000620005498682870162000506565b93505060206200055c868287016200034f565b92505060406200056f868287016200034f565b9150509250925092565b62000584816200032b565b82525050565b600060a082019050620005a16000830188620003cc565b620005b06020830187620003cc565b620005bf604083018662000579565b620005ce606083018562000579565b620005dd6080830184620003cc565b9695505050505050565b6000608082019050620005fe6000830187620003cc565b6200060d6020830186620003cc565b6200061c6040830185620003cc565b6200062b606083018462000579565b9594505050505056fe60806040523480156200001157600080fd5b5060405162001c0d38038062001c0d833981810160405281019062000037919062000202565b846000806101000a81548173ffffffffffffffffffffffffffffffffffffffff021916908373ffffffffffffffffffffffffffffffffffffffff16021790555083600160006101000a81548173ffffffffffffffffffffffffffffffffffffffff021916908373ffffffffffffffffffffffffffffffffffffffff160217905550826002819055506201518082620000d09190620002b9565b42620000dd919062000304565b6003819055506000600460006101000a81548160ff021916908360048111156200010c576200010b6200033f565b5b021790555080600460016101000a81548173ffffffffffffffffffffffffffffffffffffffff021916908373ffffffffffffffffffffffffffffffffffffffff16021790555050505050506200036e565b600080fd5b600073ffffffffffffffffffffffffffffffffffffffff82169050919050565b60006200018f8262000162565b9050919050565b620001a18162000182565b8114620001ad57600080fd5b50565b600081519050620001c18162000196565b92915050565b6000819050919050565b620001dc81620001c7565b8114620001e857600080fd5b50565b600081519050620001fc81620001d1565b92915050565b600080600080600060a086880312156200022157620002206200015d565b5b60006200023188828901620001b0565b95505060206200024488828901620001b0565b94505060406200025788828901620001eb565b93505060606200026a88828901620001eb565b92505060806200027d88828901620001b0565b9150509295509295909350565b7f4e487b7100000000000000000000000000000000000000000000000000000000600052601160045260246000fd5b6000620002c682620001c7565b9150620002d383620001c7565b9250828202620002e381620001c7565b91508282048414831517620002fd57620002fc6200028a565b5b5092915050565b60006200031182620001c7565b91506200031e83620001c7565b92508282019050808211156200033957620003386200028a565b5b92915050565b7f4e487b7100000000000000000000000000000000000000000000000000000000600052602160045260246000fd5b61188f806200037e6000396000f3fe608060405234801561001057600080fd5b50600436106100cf5760003560e01c8063a37dda2c1161008c578063c19d93fb11610066578063c19d93fb146101b8578063d116c8c4146101d6578063df44be2c146101e0578063f9c55115146101fe576100cf565b8063a37dda2c14610172578063a5d737ac14610190578063aa8c217c1461019a576100cf565b8063095da7f6146100d4578063109e94cf146100f057806324c8c6981461010e5780633e413bee1461012c5780636daa2d441461014a5780638525855d14610154575b600080fd5b6100ee60048036038101906100e99190610e94565b61021c565b005b6100f8610453565b6040516101059190610f1e565b60405180910390f35b610116610477565b6040516101239190610f52565b60405180910390f35b61013461047d565b6040516101419190610fcc565b60405180910390f35b6101526104a3565b005b61015c61055f565b6040516101699190611066565b60405180910390f35b61017a6105ed565b6040516101879190610f1e565b60405180910390f35b610198610613565b005b6101a2610862565b6040516101af91906110a1565b60405180910390f35b6101c0610868565b6040516101cd9190611133565b60405180910390f35b6101de61087b565b005b6101e8610a9f565b6040516101f59190611066565b60405180910390f35b610206610d34565b60405161021391906110a1565b60405180910390f35b600160009054906101000a900473ffffffffffffffffffffffffffffffffffffffff1673ffffffffffffffffffffffffffffffffffffffff163373ffffffffffffffffffffffffffffffffffffffff16146102ac576040517f08c379a00000000000000000000000000000000000000000000000000000000081526004016102a3906111c0565b60405180910390fd5b60018060048111156102c1576102c06110bc565b5b600460009054906101000a900460ff1660048111156102e3576102e26110bc565b5b14610323576040517f08c379a000000000000000000000000000000000000000000000000000000000815260040161031a9061122c565b60405180910390fd5b600354421115610368576040517f08c379a000000000000000000000000000000000000000000000000000000000815260040161035f90611298565b60405180910390fd5b816005908161037791906114ba565b5060028260405160200161038b91906115c8565b6040516020818303038152906040526040516103a79190611626565b602060405180830381855afa1580156103c4573d6000803e3d6000fd5b5050506040513d601f19601f820116820180604052508101906103e79190611669565b6006819055506002600460006101000a81548160ff02191690836004811115610413576104126110bc565b5b02179055507f9d0581297f0ce789714b600feee27278aa53d55e6834cf60265df447fb5bdb5f826040516104479190611066565b60405180910390a15050565b60008054906101000a900473ffffffffffffffffffffffffffffffffffffffff1681565b60065481565b600460019054906101000a900473ffffffffffffffffffffffffffffffffffffffff1681565b60008054906101000a900473ffffffffffffffffffffffffffffffffffffffff1673ffffffffffffffffffffffffffffffffffffffff163373ffffffffffffffffffffffffffffffffffffffff1614610531576040517f08c379a000000000000000000000000000000000000000000000000000000000815260040161052890611708565b60405180910390fd5b7fa9f218df296bdff29869b6b40927376285db89e1726d55dc7a5583eab3f72c4260405160405180910390a1565b6005805461056c906112e7565b80601f0160208091040260200160405190810160405280929190818152602001828054610598906112e7565b80156105e55780601f106105ba576101008083540402835291602001916105e5565b820191906000526020600020905b8154815290600101906020018083116105c857829003601f168201915b505050505081565b600160009054906101000a900473ffffffffffffffffffffffffffffffffffffffff1681565b60008054906101000a900473ffffffffffffffffffffffffffffffffffffffff1673ffffffffffffffffffffffffffffffffffffffff163373ffffffffffffffffffffffffffffffffffffffff16146106a1576040517f08c379a000000000000000000000000000000000000000000000000000000000815260040161069890611708565b60405180910390fd5b60008060048111156106b6576106b56110bc565b5b600460009054906101000a900460ff1660048111156106d8576106d76110bc565b5b14610718576040517f08c379a000000000000000000000000000000000000000000000000000000000815260040161070f9061122c565b60405180910390fd5b600460019054906101000a900473ffffffffffffffffffffffffffffffffffffffff1673ffffffffffffffffffffffffffffffffffffffff166323b872dd33306002546040518463ffffffff1660e01b815260040161077993929190611728565b6020604051808303816000875af1158015610798573d6000803e3d6000fd5b505050506040513d601f19601f820116820180604052508101906107bc9190611797565b6107fb576040517f08c379a00000000000000000000000000000000000000000000000000000000081526004016107f290611810565b60405180910390fd5b6001600460006101000a81548160ff02191690836004811115610821576108206110bc565b5b02179055507f3b4f5a74452cddb80ae5a0d279eb7db6afd5e556e72ca2883016b1da7c9d211660025460405161085791906110a1565b60405180910390a150565b60025481565b600460009054906101000a900460ff1681565b60008054906101000a900473ffffffffffffffffffffffffffffffffffffffff1673ffffffffffffffffffffffffffffffffffffffff163373ffffffffffffffffffffffffffffffffffffffff1614610909576040517f08c379a000000000000000000000000000000000000000000000000000000000815260040161090090611708565b60405180910390fd5b600280600481111561091e5761091d6110bc565b5b600460009054906101000a900460ff1660048111156109405761093f6110bc565b5b14610980576040517f08c379a00000000000000000000000000000000000000000000000000000000081526004016109779061122c565b60405180910390fd5b600460019054906101000a900473ffffffffffffffffffffffffffffffffffffffff1673ffffffffffffffffffffffffffffffffffffffff1663a9059cbb600160009054906101000a900473ffffffffffffffffffffffffffffffffffffffff166002546040518363ffffffff1660e01b8152600401610a01929190611830565b6020604051808303816000875af1158015610a20573d6000803e3d6000fd5b505050506040513d601f19601f82011682018060405250810190610a449190611797565b506003600460006101000a81548160ff02191690836004811115610a6b57610a6a6110bc565b5b02179055507f81a961bb897d4b56753a72e24cddad54283f65d9c5f92a0e6def13dc52c91ccc60405160405180910390a150565b606060006004811115610ab557610ab46110bc565b5b600460009054906101000a900460ff166004811115610ad757610ad66110bc565b5b03610b19576040518060400160405280601081526020017f4157414954494e475f5041594d454e54000000000000000000000000000000008152509050610d31565b60016004811115610b2d57610b2c6110bc565b5b600460009054906101000a900460ff166004811115610b4f57610b4e6110bc565b5b03610b91576040518060400160405280601181526020017f4157414954494e475f44454c49564552590000000000000000000000000000008152509050610d31565b60026004811115610ba557610ba46110bc565b5b600460009054906101000a900460ff166004811115610bc757610bc66110bc565b5b03610c09576040518060400160405280600e81526020017f574f524b5f5355424d49545445440000000000000000000000000000000000008152509050610d31565b60036004811115610c1d57610c1c6110bc565b5b600460009054906101000a900460ff166004811115610c3f57610c3e6110bc565b5b03610c81576040518060400160405280600881526020017f434f4d504c4554450000000000000000000000000000000000000000000000008152509050610d31565b600480811115610c9457610c936110bc565b5b600460009054906101000a900460ff166004811115610cb657610cb56110bc565b5b03610cf8576040518060400160405280600881526020017f524546554e4445440000000000000000000000000000000000000000000000008152509050610d31565b6040518060400160405280600781526020017f554e4b4e4f574e0000000000000000000000000000000000000000000000000081525090505b90565b60035481565b6000604051905090565b600080fd5b600080fd5b600080fd5b600080fd5b6000601f19601f8301169050919050565b7f4e487b7100000000000000000000000000000000000000000000000000000000600052604160045260246000fd5b610da182610d58565b810181811067ffffffffffffffff82111715610dc057610dbf610d69565b5b80604052505050565b6000610dd3610d3a565b9050610ddf8282610d98565b919050565b600067ffffffffffffffff821115610dff57610dfe610d69565b5b610e0882610d58565b9050602081019050919050565b82818337600083830152505050565b6000610e37610e3284610de4565b610dc9565b905082815260208101848484011115610e5357610e52610d53565b5b610e5e848285610e15565b509392505050565b600082601f830112610e7b57610e7a610d4e565b5b8135610e8b848260208601610e24565b91505092915050565b600060208284031215610eaa57610ea9610d44565b5b600082013567ffffffffffffffff811115610ec857610ec7610d49565b5b610ed484828501610e66565b91505092915050565b600073ffffffffffffffffffffffffffffffffffffffff82169050919050565b6000610f0882610edd565b9050919050565b610f1881610efd565b82525050565b6000602082019050610f336000830184610f0f565b92915050565b6000819050919050565b610f4c81610f39565b82525050565b6000602082019050610f676000830184610f43565b92915050565b6000819050919050565b6000610f92610f8d610f8884610edd565b610f6d565b610edd565b9050919050565b6000610fa482610f77565b9050919050565b6000610fb682610f99565b9050919050565b610fc681610fab565b82525050565b6000602082019050610fe16000830184610fbd565b92915050565b600081519050919050565b600082825260208201905092915050565b60005b83811015611021578082015181840152602081019050611006565b60008484015250505050565b600061103882610fe7565b6110428185610ff2565b9350611052818560208601611003565b61105b81610d58565b840191505092915050565b60006020820190508181036000830152611080818461102d565b905092915050565b6000819050919050565b61109b81611088565b82525050565b60006020820190506110b66000830184611092565b92915050565b7f4e487b7100000000000000000000000000000000000000000000000000000000600052602160045260246000fd5b600581106110fc576110fb6110bc565b5b50565b600081905061110d826110eb565b919050565b600061111d826110ff565b9050919050565b61112d81611112565b82525050565b60006020820190506111486000830184611124565b92915050565b7f4f6e6c7920667265656c616e6365722063616e20706572666f726d207468697360008201527f20616374696f6e00000000000000000000000000000000000000000000000000602082015250565b60006111aa602783610ff2565b91506111b58261114e565b604082019050919050565b600060208201905081810360008301526111d98161119d565b9050919050565b7f496e76616c69642073746174652e000000000000000000000000000000000000600082015250565b6000611216600e83610ff2565b9150611221826111e0565b602082019050919050565b6000602082019050818103600083015261124581611209565b9050919050565b7f5375626d697373696f6e20646561646c696e65207061737365642e0000000000600082015250565b6000611282601b83610ff2565b915061128d8261124c565b602082019050919050565b600060208201905081810360008301526112b181611275565b9050919050565b7f4e487b7100000000000000000000000000000000000000000000000000000000600052602260045260246000fd5b600060028204905060018216806112ff57607f821691505b602082108103611312576113116112b8565b5b50919050565b60008190508160005260206000209050919050565b60006020601f8301049050919050565b600082821b905092915050565b60006008830261137a7fffffffffffffffffffffffffffffffffffffffffffffffffffffffffffffffff8261133d565b611384868361133d565b95508019841693508086168417925050509392505050565b60006113b76113b26113ad84611088565b610f6d565b611088565b9050919050565b6000819050919050565b6113d18361139c565b6113e56113dd826113be565b84845461134a565b825550505050565b600090565b6113fa6113ed565b6114058184846113c8565b505050565b5b818110156114295761141e6000826113f2565b60018101905061140b565b5050565b601f82111561146e5761143f81611318565b6114488461132d565b81016020851015611457578190505b61146b6114638561132d565b83018261140a565b50505b505050565b600082821c905092915050565b600061149160001984600802611473565b1980831691505092915050565b60006114aa8383611480565b9150826002028217905092915050565b6114c382610fe7565b67ffffffffffffffff8111156114dc576114db610d69565b5b6114e682546112e7565b6114f182828561142d565b600060209050601f8311600181146115245760008415611512578287015190505b61151c858261149e565b865550611584565b601f19841661153286611318565b60005b8281101561155a57848901518255600182019150602085019450602081019050611535565b868310156115775784890151611573601f891682611480565b8355505b6001600288020188555050505b505050505050565b600081905092915050565b60006115a282610fe7565b6115ac818561158c565b93506115bc818560208601611003565b80840191505092915050565b60006115d48284611597565b915081905092915050565b600081519050919050565b600081905092915050565b6000611600826115df565b61160a81856115ea565b935061161a818560208601611003565b80840191505092915050565b600061163282846115f5565b915081905092915050565b61164681610f39565b811461165157600080fd5b50565b6000815190506116638161163d565b92915050565b60006020828403121561167f5761167e610d44565b5b600061168d84828501611654565b91505092915050565b7f4f6e6c7920636c69656e742063616e20706572666f726d20746869732061637460008201527f696f6e0000000000000000000000000000000000000000000000000000000000602082015250565b60006116f2602383610ff2565b91506116fd82611696565b604082019050919050565b60006020820190508181036000830152611721816116e5565b9050919050565b600060608201905061173d6000830186610f0f565b61174a6020830185610f0f565b6117576040830184611092565b949350505050565b60008115159050919050565b6117748161175f565b811461177f57600080fd5b50565b6000815190506117918161176b565b92915050565b6000602082840312156117ad576117ac610d44565b5b60006117bb84828501611782565b91505092915050565b7f5472616e73666572206661696c65640000000000000000000000000000000000600082015250565b60006117fa600f83610ff2565b9150611805826117c4565b602082019050919050565b60006020820190508181036000830152611829816117ed565b9050919050565b60006040820190506118456000830185610f0f565b6118526020830184611092565b939250505056fea2646970667358221220c4b2fee21af17a42ab6db6cfc4e25c2d292c5377285496aa0556c6c057114ca064736f6c63430008180033a2646970667358221220acdf0c8e226ce881a0b38d2431b28c67b4226551fb211613c9e20328688b769a64736f6c63430008180033",
  "linkReferences": {},
  "deployedLinkReferences": {}
}