{
  "_format": "hh-sol-artifact-1",
  "contractName": "DLancerDAO",
  "sourceName": "contracts/DLancerDAO.sol",
  "abi": [
    {
      "inputs": [
        {
          "internalType": "address",
          "name": "_dlgtToken",
          "type": "address"
        }
      ],
      "stateMutability": "nonpayable",
      "type": "constructor"
    },
    {
      "anonymous": false,
      "inputs": [
        {
          "indexed": false,
          "internalType": "uint256",
          "name": "disputeId",
          "type": "uint256"
        },
        {
          "indexed": false,
          "internalType": "address",
          "name": "client",
          "type": "address"
        },
        {
          "indexed": false,
          "internalType": "address",
          "name": "freelancer",
          "type": "address"
        }
      ],
      "name": "DisputeRaised",
      "type": "event"
    },
    {
      "anonymous": false,
      "inputs": [
        {
          "indexed": false,
          "internalType": "uint256",
          "name": "disputeId",
          "type": "uint256"
        },
        {
          "indexed": false,
          "internalType": "address",
          "name": "winner",
          "type": "address"
        }
      ],
      "name": "DisputeResolved",
      "type": "event"
    },
    {
      "anonymous": false,
      "inputs": [
        {
          "indexed": false,
          "internalType": "uint256",
          "name": "disputeId",
          "type": "uint256"
        },
        {
          "indexed": false,
          "internalType": "address",
          "name": "voter",
          "type": "address"
        },
        {
          "indexed": false,
          "internalType": "bool",
          "name": "supportClient",
          "type": "bool"
        }
      ],
      "name": "VoteCast",
      "type": "event"
    },
    {
      "inputs": [],
      "name": "disputeCount",
      "outputs": [
        {
          "internalType": "uint256",
          "name": "",
          "type": "uint256"
        }
      ],
      "stateMutability": "view",
      "type": "function"
    },
    {
      "inputs": [
        {
          "internalType": "uint256",
          "name": "",
          "type": "uint256"
        }
      ],
      "name": "disputes",
      "outputs": [
        {
          "internalType": "address",
          "name": "client",
          "type": "address"
        },
        {
          "internalType": "address",
          "name": "freelancer",
          "type": "address"
        },
        {
          "internalType": "uint256",
          "name": "escrowId",
          "type": "uint256"
        },
        {
          "internalType": "uint256",
          "name": "votesForClient",
          "type": "uint256"
        },
        {
          "internalType": "uint256",
          "name": "votesForFreelancer",
          "type": "uint256"
        },
        {
          "internalType": "bool",
          "name": "resolved",
          "type": "bool"
        }
      ],
      "stateMutability": "view",
      "type": "function"
    },
    {
      "inputs": [],
      "name": "dlgtToken",
      "outputs": [
        {
          "internalType": "contract GovernanceToken",
          "name": "",
          "type": "address"
        }
      ],
      "stateMutability": "view",
      "type": "function"
    },
    {
      "inputs": [],
      "name": "escrowContract",
      "outputs": [
        {
          "internalType": "address",
          "name": "",
          "type": "address"
        }
      ],
      "stateMutability": "view",
      "type": "function"
    },
    {
      "inputs": [
        {
          "internalType": "address",
          "name": "freelancer",
          "type": "address"
        },
        {
          "internalType": "uint256",
          "name": "escrowId",
          "type": "uint256"
        }
      ],
      "name": "raiseDispute",
      "outputs": [],
      "stateMutability": "nonpayable",
      "type": "function"
    },
    {
      "inputs": [
        {
          "internalType": "uint256",
          "name": "disputeId",
          "type": "uint256"
        }
      ],
      "name": "resolveDispute",
      "outputs": [],
      "stateMutability": "nonpayable",
      "type": "function"
    },
    {
      "inputs": [
        {
          "internalType": "address",
          "name": "_escrowContract",
          "type": "address"
        }
      ],
      "name": "setEscrowContract",
      "outputs": [],
      "stateMutability": "nonpayable",
      "type": "function"
    },
    {
      "inputs": [
        {
          "internalType": "uint256",
          "name": "disputeId",
          "type": "uint256"
        },
        {
          "internalType": "bool",
          "name": "supportClient",
          "type": "bool"
        }
      ],
      "name": "voteOnDispute",
      "outputs": [],
      "stateMutability": "nonpayable",
      "type": "function"
    }
  ],
  "bytecode": "0x60806040523480156200001157600080fd5b50604051620012bf380380620012bf8339818101604052810190620000379190620000e9565b80600260006101000a81548173ffffffffffffffffffffffffffffffffffffffff021916908373ffffffffffffffffffffffffffffffffffffffff160217905550506200011b565b600080fd5b600073ffffffffffffffffffffffffffffffffffffffff82169050919050565b6000620000b18262000084565b9050919050565b620000c381620000a4565b8114620000cf57600080fd5b50565b600081519050620000e381620000b8565b92915050565b6000602082840312156200010257620001016200007f565b5b60006200011284828501620000d2565b91505092915050565b611194806200012b6000396000f3fe608060405234801561001057600080fd5b50600436106100885760003560e01c8063a4f5df121161005b578063a4f5df121461011a578063c2b7b86814610136578063e42a96e714610152578063f42375b51461017057610088565b806316eddaee1461008d578063564a565d146100a957806391bb5848146100de578063a28889e1146100fc575b600080fd5b6100a760048036038101906100a291906109ae565b61018c565b005b6100c360048036038101906100be91906109ee565b610326565b6040516100d596959493929190610a54565b60405180910390f35b6100e66103af565b6040516100f39190610b14565b60405180910390f35b6101046103d5565b6040516101119190610b2f565b60405180910390f35b610134600480360381019061012f9190610b76565b6103db565b005b610150600480360381019061014b91906109ee565b6105bd565b005b61015a61081a565b6040516101679190610bb6565b60405180910390f35b61018a60048036038101906101859190610bd1565b610840565b005b6040518060c001604052803373ffffffffffffffffffffffffffffffffffffffff1681526020018373ffffffffffffffffffffffffffffffffffffffff168152602001828152602001600081526020016000815260200160001515815250600080600154815260200190815260200160002060008201518160000160006101000a81548173ffffffffffffffffffffffffffffffffffffffff021916908373ffffffffffffffffffffffffffffffffffffffff16021790555060208201518160010160006101000a81548173ffffffffffffffffffffffffffffffffffffffff021916908373ffffffffffffffffffffffffffffffffffffffff16021790555060408201518160020155606082015181600301556080820151816004015560a08201518160050160006101000a81548160ff0219169083151502179055509050507f32c3577ad32544a8c06c1b330ada404f03a4d405574e524dd6d86eeba5f21e73600154338460405161030293929190610bfe565b60405180910390a16001600081548092919061031d90610c64565b91905055505050565b60006020528060005260406000206000915090508060000160009054906101000a900473ffffffffffffffffffffffffffffffffffffffff16908060010160009054906101000a900473ffffffffffffffffffffffffffffffffffffffff16908060020154908060030154908060040154908060050160009054906101000a900460ff16905086565b600260009054906101000a900473ffffffffffffffffffffffffffffffffffffffff1681565b60015481565b60008083815260200190815260200160002060050160009054906101000a900460ff161561043e576040517f08c379a000000000000000000000000000000000000000000000000000000000815260040161043590610d09565b60405180910390fd5b6000600260009054906101000a900473ffffffffffffffffffffffffffffffffffffffff1673ffffffffffffffffffffffffffffffffffffffff166370a08231336040518263ffffffff1660e01b815260040161049b9190610bb6565b602060405180830381865afa1580156104b8573d6000803e3d6000fd5b505050506040513d601f19601f820116820180604052508101906104dc9190610d3e565b1161051c576040517f08c379a000000000000000000000000000000000000000000000000000000000815260040161051390610db7565b60405180910390fd5b801561055257600080838152602001908152602001600020600301600081548092919061054890610c64565b919050555061057e565b600080838152602001908152602001600020600401600081548092919061057890610c64565b91905055505b7fe71fcdac32df1877c1700e7bda2a03157e20993363a28fc35ac495cefc76e4d48233836040516105b193929190610dd7565b60405180910390a15050565b600080600083815260200190815260200160002090508060050160009054906101000a900460ff1615610625576040517f08c379a000000000000000000000000000000000000000000000000000000000815260040161061c90610e5a565b60405180910390fd5b60008160040154826003015411610660578160010160009054906101000a900473ffffffffffffffffffffffffffffffffffffffff16610686565b8160000160009054906101000a900473ffffffffffffffffffffffffffffffffffffffff165b905060018260050160006101000a81548160ff021916908315150217905550600260009054906101000a900473ffffffffffffffffffffffffffffffffffffffff1673ffffffffffffffffffffffffffffffffffffffff166340c10f1982600260009054906101000a900473ffffffffffffffffffffffffffffffffffffffff1673ffffffffffffffffffffffffffffffffffffffff1663313ce5676040518163ffffffff1660e01b8152600401602060405180830381865afa158015610751573d6000803e3d6000fd5b505050506040513d601f19601f820116820180604052508101906107759190610eb3565b600a6107819190611013565b606461078d919061105e565b6040518363ffffffff1660e01b81526004016107aa9291906110a0565b600060405180830381600087803b1580156107c457600080fd5b505af11580156107d8573d6000803e3d6000fd5b505050507ff77ceb5e091d2da041bc760667f9d5fe7a756949eaf29250ad0e60ca6f4c27d9838260405161080d9291906110c9565b60405180910390a1505050565b600360009054906101000a900473ffffffffffffffffffffffffffffffffffffffff1681565b600073ffffffffffffffffffffffffffffffffffffffff16600360009054906101000a900473ffffffffffffffffffffffffffffffffffffffff1673ffffffffffffffffffffffffffffffffffffffff16146108d1576040517f08c379a00000000000000000000000000000000000000000000000000000000081526004016108c89061113e565b60405180910390fd5b80600360006101000a81548173ffffffffffffffffffffffffffffffffffffffff021916908373ffffffffffffffffffffffffffffffffffffffff16021790555050565b600080fd5b600073ffffffffffffffffffffffffffffffffffffffff82169050919050565b60006109458261091a565b9050919050565b6109558161093a565b811461096057600080fd5b50565b6000813590506109728161094c565b92915050565b6000819050919050565b61098b81610978565b811461099657600080fd5b50565b6000813590506109a881610982565b92915050565b600080604083850312156109c5576109c4610915565b5b60006109d385828601610963565b92505060206109e485828601610999565b9150509250929050565b600060208284031215610a0457610a03610915565b5b6000610a1284828501610999565b91505092915050565b610a248161093a565b82525050565b610a3381610978565b82525050565b60008115159050919050565b610a4e81610a39565b82525050565b600060c082019050610a696000830189610a1b565b610a766020830188610a1b565b610a836040830187610a2a565b610a906060830186610a2a565b610a9d6080830185610a2a565b610aaa60a0830184610a45565b979650505050505050565b6000819050919050565b6000610ada610ad5610ad08461091a565b610ab5565b61091a565b9050919050565b6000610aec82610abf565b9050919050565b6000610afe82610ae1565b9050919050565b610b0e81610af3565b82525050565b6000602082019050610b296000830184610b05565b92915050565b6000602082019050610b446000830184610a2a565b92915050565b610b5381610a39565b8114610b5e57600080fd5b50565b600081359050610b7081610b4a565b92915050565b60008060408385031215610b8d57610b8c610915565b5b6000610b9b85828601610999565b9250506020610bac85828601610b61565b9150509250929050565b6000602082019050610bcb6000830184610a1b565b92915050565b600060208284031215610be757610be6610915565b5b6000610bf584828501610963565b91505092915050565b6000606082019050610c136000830186610a2a565b610c206020830185610a1b565b610c2d6040830184610a1b565b949350505050565b7f4e487b7100000000000000000000000000000000000000000000000000000000600052601160045260246000fd5b6000610c6f82610978565b91507fffffffffffffffffffffffffffffffffffffffffffffffffffffffffffffffff8203610ca157610ca0610c35565b5b600182019050919050565b600082825260208201905092915050565b7f4469737075746520616c7265616479207265736f6c7665640000000000000000600082015250565b6000610cf3601883610cac565b9150610cfe82610cbd565b602082019050919050565b60006020820190508181036000830152610d2281610ce6565b9050919050565b600081519050610d3881610982565b92915050565b600060208284031215610d5457610d53610915565b5b6000610d6284828501610d29565b91505092915050565b7f4d75737420686f6c6420444c475420746f20766f746500000000000000000000600082015250565b6000610da1601683610cac565b9150610dac82610d6b565b602082019050919050565b60006020820190508181036000830152610dd081610d94565b9050919050565b6000606082019050610dec6000830186610a2a565b610df96020830185610a1b565b610e066040830184610a45565b949350505050565b7f416c7265616479207265736f6c76656400000000000000000000000000000000600082015250565b6000610e44601083610cac565b9150610e4f82610e0e565b602082019050919050565b60006020820190508181036000830152610e7381610e37565b9050919050565b600060ff82169050919050565b610e9081610e7a565b8114610e9b57600080fd5b50565b600081519050610ead81610e87565b92915050565b600060208284031215610ec957610ec8610915565b5b6000610ed784828501610e9e565b91505092915050565b60008160011c9050919050565b6000808291508390505b6001851115610f3757808604811115610f1357610f12610c35565b5b6001851615610f225780820291505b8081029050610f3085610ee0565b9450610ef7565b94509492505050565b600082610f50576001905061100c565b81610f5e576000905061100c565b8160018114610f745760028114610f7e57610fad565b600191505061100c565b60ff841115610f9057610f8f610c35565b5b8360020a915084821115610fa757610fa6610c35565b5b5061100c565b5060208310610133831016604e8410600b8410161715610fe25782820a905083811115610fdd57610fdc610c35565b5b61100c565b610fef8484846001610eed565b9250905081840481111561100657611005610c35565b5b81810290505b9392505050565b600061101e82610978565b915061102983610e7a565b92506110567fffffffffffffffffffffffffffffffffffffffffffffffffffffffffffffffff8484610f40565b905092915050565b600061106982610978565b915061107483610978565b925082820261108281610978565b9150828204841483151761109957611098610c35565b5b5092915050565b60006040820190506110b56000830185610a1b565b6110c26020830184610a2a565b9392505050565b60006040820190506110de6000830185610a2a565b6110eb6020830184610a1b565b9392505050565b7f457363726f7720636f6e747261637420616c7265616479207365740000000000600082015250565b6000611128601b83610cac565b9150611133826110f2565b602082019050919050565b600060208201905081810360008301526111578161111b565b905091905056fea26469706673582212203597dd1f2a68cd3b75137f6e83b79511ed3fde2b864ca0f13d6cff432196a90664736f6c63430008180033",
  "linkReferences": {},
  "deployedLinkReferences": {}
}